{
  "contractName": "CommunityVoting",
  "abi": [
    {
      "inputs": [
        {
          "internalType": "address",
          "name": "tokenContract",
          "type": "address"
        }
      ],
      "stateMutability": "nonpayable",
      "type": "constructor"
    },
    {
      "inputs": [],
      "name": "getTokenAddress",
      "outputs": [
        {
          "internalType": "address",
          "name": "",
          "type": "address"
        }
      ],
      "stateMutability": "view",
      "type": "function",
      "constant": true
    },
    {
      "inputs": [],
      "name": "getName",
      "outputs": [
        {
          "internalType": "string",
          "name": "",
          "type": "string"
        }
      ],
      "stateMutability": "pure",
      "type": "function",
      "constant": true
    },
    {
      "inputs": [],
      "name": "getNumberOfPropositions",
      "outputs": [
        {
          "internalType": "uint256",
          "name": "",
          "type": "uint256"
        }
      ],
      "stateMutability": "view",
      "type": "function",
      "constant": true
    },
    {
      "inputs": [
        {
          "internalType": "string",
          "name": "title",
          "type": "string"
        },
        {
          "internalType": "string",
          "name": "description",
          "type": "string"
        },
        {
          "internalType": "uint256",
          "name": "startBlock",
          "type": "uint256"
        },
        {
          "internalType": "uint256",
          "name": "endBlock",
          "type": "uint256"
        }
      ],
      "name": "createProposition",
      "outputs": [],
      "stateMutability": "nonpayable",
      "type": "function"
    },
    {
      "inputs": [
        {
          "internalType": "uint256",
          "name": "propositionId",
          "type": "uint256"
        }
      ],
      "name": "getPropositionInfo",
      "outputs": [
        {
          "internalType": "uint256",
          "name": "id",
          "type": "uint256"
        },
        {
          "internalType": "string",
          "name": "title",
          "type": "string"
        },
        {
          "internalType": "string",
          "name": "description",
          "type": "string"
        },
        {
          "internalType": "address",
          "name": "proposedBy",
          "type": "address"
        },
        {
          "internalType": "uint256",
          "name": "startBlock",
          "type": "uint256"
        },
        {
          "internalType": "uint256",
          "name": "endBlock",
          "type": "uint256"
        }
      ],
      "stateMutability": "view",
      "type": "function",
      "constant": true
    },
    {
      "inputs": [
        {
          "internalType": "uint256",
          "name": "propositionId",
          "type": "uint256"
        }
      ],
      "name": "getPropositionVotes",
      "outputs": [
        {
          "internalType": "uint256",
          "name": "totalVotes",
          "type": "uint256"
        },
        {
          "internalType": "uint256",
          "name": "totalVotesAccept",
          "type": "uint256"
        },
        {
          "internalType": "uint256",
          "name": "totalVotesDeny",
          "type": "uint256"
        },
        {
          "internalType": "uint256",
          "name": "totalVotesReserved",
          "type": "uint256"
        }
      ],
      "stateMutability": "view",
      "type": "function",
      "constant": true
    },
    {
      "inputs": [
        {
          "internalType": "uint256",
          "name": "propositionId",
          "type": "uint256"
        }
      ],
      "name": "getPropositionStatus",
      "outputs": [
        {
          "internalType": "enum IVotable.PropositionStatus",
          "name": "",
          "type": "uint8"
        }
      ],
      "stateMutability": "view",
      "type": "function",
      "constant": true
    },
    {
      "inputs": [
        {
          "internalType": "uint256",
          "name": "propositionId",
          "type": "uint256"
        },
        {
          "internalType": "enum IVotable.VotingOptions",
          "name": "votingOption",
          "type": "uint8"
        }
      ],
      "name": "vote",
      "outputs": [],
      "stateMutability": "nonpayable",
      "type": "function"
    }
  ],
  "bytecode": "0x608060405234801561001057600080fd5b5060405161187a38038061187a8339818101604052602081101561003357600080fd5b81019080805190602001909291905050506000808190555080600260006101000a81548173ffffffffffffffffffffffffffffffffffffffff021916908373ffffffffffffffffffffffffffffffffffffffff160217905550506117de8061009c6000396000f3fe608060405234801561001057600080fd5b50600436106100885760003560e01c8063943e82161161005b578063943e8216146101af578063ae9f9b99146101ea578063bb1f0c4c1461032f578063ca8db5571461049557610088565b80630366af3d1461008d57806310fe9ae8146100da57806317d7de7c1461010e5780634dd8597214610191575b600080fd5b6100b9600480360360208110156100a357600080fd5b81019080803590602001909291905050506104ec565b604051808260038111156100c957fe5b815260200191505060405180910390f35b6100e26106f9565b604051808273ffffffffffffffffffffffffffffffffffffffff16815260200191505060405180910390f35b610116610723565b6040518080602001828103825283818151815260200191508051906020019080838360005b8381101561015657808201518184015260208101905061013b565b50505050905090810190601f1680156101835780820380516001836020036101000a031916815260200191505b509250505060405180910390f35b610199610743565b6040518082815260200191505060405180910390f35b6101e8600480360360408110156101c557600080fd5b8101908080359060200190929190803560ff16906020019092919050505061074c565b005b6102166004803603602081101561020057600080fd5b8101908080359060200190929190505050610e7d565b6040518087815260200180602001806020018673ffffffffffffffffffffffffffffffffffffffff168152602001858152602001848152602001838103835288818151815260200191508051906020019080838360005b8381101561028857808201518184015260208101905061026d565b50505050905090810190601f1680156102b55780820380516001836020036101000a031916815260200191505b50838103825287818151815260200191508051906020019080838360005b838110156102ee5780820151818401526020810190506102d3565b50505050905090810190601f16801561031b5780820380516001836020036101000a031916815260200191505b509850505050505050505060405180910390f35b6104936004803603608081101561034557600080fd5b810190808035906020019064010000000081111561036257600080fd5b82018360208201111561037457600080fd5b8035906020019184600183028401116401000000008311171561039657600080fd5b91908080601f016020809104026020016040519081016040528093929190818152602001838380828437600081840152601f19601f820116905080830192505050505050509192919290803590602001906401000000008111156103f957600080fd5b82018360208201111561040b57600080fd5b8035906020019184600183028401116401000000008311171561042d57600080fd5b91908080601f016020809104026020016040519081016040528093929190818152602001838380828437600081840152601f19601f8201169050808301925050505050505091929192908035906020019092919080359060200190929190505050611102565b005b6104c1600480360360208110156104ab57600080fd5b8101908080359060200190929190505050611429565b6040518085815260200184815260200183815260200182815260200194505050505060405180910390f35b60008160008110158015610501575060005481105b610573576040517f08c379a00000000000000000000000000000000000000000000000000000000081526004018080602001828103825260168152602001807f496e76616c69642070726f706f736974696f6e2049640000000000000000000081525060200191505060405180910390fd5b4360016000858152602001908152602001600020600b0154111561059a57600091506106f3565b4360016000858152602001908152602001600020600c0154106105c057600191506106f3565b6000600260009054906101000a900473ffffffffffffffffffffffffffffffffffffffff1673ffffffffffffffffffffffffffffffffffffffff166318160ddd6040518163ffffffff1660e01b815260040160206040518083038186803b15801561062a57600080fd5b505afa15801561063e573d6000803e3d6000fd5b505050506040513d602081101561065457600080fd5b810190808051906020019092919050505090506000610674826002611520565b905080600160008781526020019081526020016000206004015411156106ec5760006001600087815260200190815260200160002060040154905060006106bc826002611520565b905080600160008981526020019081526020016000206005015411156106e95760029550505050506106f3565b50505b5050600391505b50919050565b6000600260009054906101000a900473ffffffffffffffffffffffffffffffffffffffff16905090565b606060405180606001604052806026815260200161178360269139905090565b60008054905090565b816000811015801561075f575060005481105b6107d1576040517f08c379a00000000000000000000000000000000000000000000000000000000081526004018080602001828103825260168152602001807f496e76616c69642070726f706f736974696f6e2049640000000000000000000081525060200191505060405180910390fd5b824360016000838152602001908152602001600020600b01541115801561080e57504360016000838152602001908152602001600020600c015410155b610863576040517f08c379a000000000000000000000000000000000000000000000000000000000815260040180806020018281038252602481526020018061175f6024913960400191505060405180910390fd5b6000600260009054906101000a900473ffffffffffffffffffffffffffffffffffffffff1673ffffffffffffffffffffffffffffffffffffffff166370a08231336040518263ffffffff1660e01b8152600401808273ffffffffffffffffffffffffffffffffffffffff16815260200191505060206040518083038186803b1580156108ee57600080fd5b505afa158015610902573d6000803e3d6000fd5b505050506040513d602081101561091857600080fd5b81019080805190602001909291905050501161099c576040517f08c379a000000000000000000000000000000000000000000000000000000000815260040180806020018281038252601c8152602001807f596f7520617265206e6f7420616e20616374697665206d656d6265720000000081525060200191505060405180910390fd5b836001600082815260200190815260200160002060080160003373ffffffffffffffffffffffffffffffffffffffff1673ffffffffffffffffffffffffffffffffffffffff16815260200190815260200160002060009054906101000a900460ff1615610a71576040517f08c379a00000000000000000000000000000000000000000000000000000000081526004018080602001828103825260118152602001807f596f7520616c726561647920766f74656400000000000000000000000000000081525060200191505060405180910390fd5b6001600082815260200190815260200160002060090160003373ffffffffffffffffffffffffffffffffffffffff1673ffffffffffffffffffffffffffffffffffffffff16815260200190815260200160002060009054906101000a900460ff1615610b45576040517f08c379a00000000000000000000000000000000000000000000000000000000081526004018080602001828103825260118152602001807f596f7520616c726561647920766f74656400000000000000000000000000000081525060200191505060405180910390fd5b60016000828152602001908152602001600020600a0160003373ffffffffffffffffffffffffffffffffffffffff1673ffffffffffffffffffffffffffffffffffffffff16815260200190815260200160002060009054906101000a900460ff1615610c19576040517f08c379a00000000000000000000000000000000000000000000000000000000081526004018080602001828103825260118152602001807f596f7520616c726561647920766f74656400000000000000000000000000000081525060200191505060405180910390fd5b600060016000878152602001908152602001600020905060006002811115610c3d57fe5b856002811115610c4957fe5b1415610cc55760018160080160003373ffffffffffffffffffffffffffffffffffffffff1673ffffffffffffffffffffffffffffffffffffffff16815260200190815260200160002060006101000a81548160ff021916908315150217905550610cb88160050154600161156a565b8160050181905550610e5e565b60016002811115610cd257fe5b856002811115610cde57fe5b1415610d5a5760018160090160003373ffffffffffffffffffffffffffffffffffffffff1673ffffffffffffffffffffffffffffffffffffffff16815260200190815260200160002060006101000a81548160ff021916908315150217905550610d4d8160060154600161156a565b8160060181905550610e5d565b600280811115610d6657fe5b856002811115610d7257fe5b1415610dee57600181600a0160003373ffffffffffffffffffffffffffffffffffffffff1673ffffffffffffffffffffffffffffffffffffffff16815260200190815260200160002060006101000a81548160ff021916908315150217905550610de18160070154600161156a565b8160070181905550610e5c565b6040517f08c379a00000000000000000000000000000000000000000000000000000000081526004018080602001828103825260158152602001807f496e76616c696420766f74696e67206f7074696f6e000000000000000000000081525060200191505060405180910390fd5b5b5b610e6d8160040154600161156a565b8160040181905550505050505050565b600060608060008060008660008110158015610e9a575060005481105b610f0c576040517f08c379a00000000000000000000000000000000000000000000000000000000081526004018080602001828103825260168152602001807f496e76616c69642070726f706f736974696f6e2049640000000000000000000081525060200191505060405180910390fd5b6001600089815260200190815260200160002060000154600160008a8152602001908152602001600020600101600160008b8152602001908152602001600020600201600160008c815260200190815260200160002060030160009054906101000a900473ffffffffffffffffffffffffffffffffffffffff16600160008d8152602001908152602001600020600b0154600160008e8152602001908152602001600020600c0154848054600181600116156101000203166002900480601f0160208091040260200160405190810160405280929190818152602001828054600181600116156101000203166002900480156110495780601f1061101e57610100808354040283529160200191611049565b820191906000526020600020905b81548152906001019060200180831161102c57829003601f168201915b50505050509450838054600181600116156101000203166002900480601f0160208091040260200160405190810160405280929190818152602001828054600181600116156101000203166002900480156110e55780601f106110ba576101008083540402835291602001916110e5565b820191906000526020600020905b8154815290600101906020018083116110c857829003601f168201915b505050505093509650965096509650965096505091939550919395565b6000600260009054906101000a900473ffffffffffffffffffffffffffffffffffffffff1673ffffffffffffffffffffffffffffffffffffffff166370a08231336040518263ffffffff1660e01b8152600401808273ffffffffffffffffffffffffffffffffffffffff16815260200191505060206040518083038186803b15801561118d57600080fd5b505afa1580156111a1573d6000803e3d6000fd5b505050506040513d60208110156111b757600080fd5b81019080805190602001909291905050501161123b576040517f08c379a000000000000000000000000000000000000000000000000000000000815260040180806020018281038252601c8152602001807f596f7520617265206e6f7420616e20616374697665206d656d6265720000000081525060200191505060405180910390fd5b81438110156112b2576040517f08c379a000000000000000000000000000000000000000000000000000000000815260040180806020018281038252601a8152602001807f496e76616c696420737461727420626c6f636b206e756d62657200000000000081525060200191505060405180910390fd5b8282806112c6836112c16115f2565b61156a565b111561133a576040517f08c379a00000000000000000000000000000000000000000000000000000000081526004018080602001828103825260188152602001807f496e76616c696420656e6420626c6f636b206e756d626572000000000000000081525060200191505060405180910390fd5b60006001600080548152602001908152602001600020905061135f600054600161156a565b6000819055506000548160000181905550878160010190805190602001906113889291906116c1565b50868160020190805190602001906113a19291906116c1565b50338160030160006101000a81548173ffffffffffffffffffffffffffffffffffffffff021916908373ffffffffffffffffffffffffffffffffffffffff160217905550600081600401819055506000816005018190555060008160060181905550600081600701819055508581600b01819055508481600c01819055505050505050505050565b6000806000808460008110158015611442575060005481105b6114b4576040517f08c379a00000000000000000000000000000000000000000000000000000000081526004018080602001828103825260168152602001807f496e76616c69642070726f706f736974696f6e2049640000000000000000000081525060200191505060405180910390fd5b600160008781526020019081526020016000206004015460016000888152602001908152602001600020600501546001600089815260200190815260200160002060060154600160008a8152602001908152602001600020600701549450945094509450509193509193565b600061156283836040518060400160405280601081526020017f6469766973696f6e206279207a65726f000000000000000000000000000000008152506115fb565b905092915050565b6000808284019050838110156115e8576040517f08c379a00000000000000000000000000000000000000000000000000000000081526004018080602001828103825260088152602001807f6f766572666c6f7700000000000000000000000000000000000000000000000081525060200191505060405180910390fd5b8091505092915050565b6000600a905090565b600080831182906116a7576040517f08c379a00000000000000000000000000000000000000000000000000000000081526004018080602001828103825283818151815260200191508051906020019080838360005b8381101561166c578082015181840152602081019050611651565b50505050905090810190601f1680156116995780820380516001836020036101000a031916815260200191505b509250505060405180910390fd5b5060008385816116b357fe5b049050809150509392505050565b828054600181600116156101000203166002900490600052602060002090601f016020900481019282601f1061170257805160ff1916838001178555611730565b82800160010185558215611730579182015b8281111561172f578251825591602001919060010190611714565b5b50905061173d9190611741565b5090565b5b8082111561175a576000816000905550600101611742565b509056fe50726f706f736974696f6e206973206e6f742061637469766520666f7220766f74696e67454553544543204c43205a616772656220426173696320566f74696e6720436f6e7472616374a2646970667358221220ac40a67c4a9907ae2771e55b5ed58a5e32125b8619efce0048fc5f88773b4f2164736f6c63430007000033",
  "immutableReferences": {},
  "source": "// SPDX-License-Identifier: MIT\npragma solidity ^0.7.0;\n\nimport './SafeMath.sol';\nimport './IVotable.sol';\n\ncontract CommunityVoting is IVotable {\n    /**\n     * @dev Definition of one proposition.\n     */\n    struct Proposition {\n        uint256 id;\n        string title;\n        string description;\n        address proposedBy;\n        uint256 totalVotes;\n        uint256 totalVotesAccept;\n        uint256 totalVotesDeny;\n        uint256 totalVotesReserved;\n        mapping(address => bool) votersAccept;\n        mapping(address => bool) votersDeny;\n        mapping(address => bool) votersReserved;\n        uint256 startBlock;\n        uint256 endBlock;\n    }\n\n    // Name of the contract\n    string\n        internal constant contractName = 'EESTEC LC Zagreb Basic Voting Contract';\n\n    // Total propositions\n    uint256 internal totalPropositions;\n\n    // List of propositions\n    mapping(uint256 => Proposition) internal propositionsList;\n\n    // Token interface\n    IDaoToken internal token;\n\n    /**\n     * @dev Minimum difference between voting start and end block.\n     * @return minimum block difference\n     */\n    function getMinimumVotingBlockDifference() internal pure returns (uint256) {\n        return 10;\n    }\n\n    /**\n     * @dev Initialize contract on deployment.\n     */\n    constructor(address tokenContract) {\n        totalPropositions = 0;\n        token = IDaoToken(tokenContract);\n    }\n\n    /**\n     * @notice Get the address of token contract.\n     * @return the contract address\n     */\n    function getTokenAddress() external view returns (address) {\n        return address(token);\n    }\n\n    /**\n     * @notice Get the contract name.\n     * @return the contract name\n     */\n    function getName() external pure returns (string memory) {\n        return contractName;\n    }\n\n    /**\n     * @notice Get total number of all propositions in existance.\n     * @return number of propositions\n     */\n    function getNumberOfPropositions() external view returns (uint256) {\n        return totalPropositions;\n    }\n\n    /**\n     * @notice Create new proposition for voting.\n     * @dev Create new proposition struct and save it to list of propositions.\n     * @param title proposition title\n     * @param description proposition description\n     * @param startBlock block on which proposition is active for voting\n     * @param endBlock block on which proposition is no longer active\n     */\n    function createProposition(\n        string memory title,\n        string memory description,\n        uint256 startBlock,\n        uint256 endBlock\n    )\n        external\n        activeMember\n        validStartBlock(startBlock)\n        validEndBlock(startBlock, endBlock)\n    {\n        Proposition storage p = propositionsList[totalPropositions];\n\n        totalPropositions = SafeMath.add(totalPropositions, 1);\n\n        p.id = totalPropositions;\n        p.title = title;\n        p.description = description;\n        p.proposedBy = msg.sender;\n        p.totalVotes = 0;\n        p.totalVotesAccept = 0;\n        p.totalVotesDeny = 0;\n        p.totalVotesReserved = 0;\n        p.startBlock = startBlock;\n        p.endBlock = endBlock;\n    }\n\n    /**\n     * @notice Get basic info of proposition.\n     * @dev These do not include votes related data.\n     * @param propositionId id of proposition\n     * @return id\n     * @return title\n     * @return description\n     * @return proposedBy\n     * @return startBlock\n     * @return endBlock\n     */\n    function getPropositionInfo(uint256 propositionId)\n        external\n        view\n        validPropositionId(propositionId)\n        returns (\n            uint256 id,\n            string memory title,\n            string memory description,\n            address proposedBy,\n            uint256 startBlock,\n            uint256 endBlock\n        )\n    {\n        return (\n            propositionsList[propositionId].id,\n            propositionsList[propositionId].title,\n            propositionsList[propositionId].description,\n            propositionsList[propositionId].proposedBy,\n            propositionsList[propositionId].startBlock,\n            propositionsList[propositionId].endBlock\n        );\n    }\n\n    /**\n     * @notice Get voting info of proposition.\n     * @dev Voting info includes:\n     * - total number of votes,\n     * - number of support votes,\n     * - number of against votes and\n     * - number of reserved votes.\n     * @param propositionId id of proposition\n     * @return totalVotes\n     * @return totalVotesAccept\n     * @return totalVotesDeny\n     * @return totalVotesReserved\n     */\n    function getPropositionVotes(uint256 propositionId)\n        external\n        view\n        validPropositionId(propositionId)\n        returns (\n            uint256 totalVotes,\n            uint256 totalVotesAccept,\n            uint256 totalVotesDeny,\n            uint256 totalVotesReserved\n        )\n    {\n        return (\n            propositionsList[propositionId].totalVotes,\n            propositionsList[propositionId].totalVotesAccept,\n            propositionsList[propositionId].totalVotesDeny,\n            propositionsList[propositionId].totalVotesReserved\n        );\n    }\n\n    /**\n     * @notice Get voting status of proposition.\n     * @dev Voting status can be:\n     * - pending if proposition is not available for voting,\n     * - active if proposition is currently available for voting,\n     * - succeeded if voters voted for support,\n     * - failed if voters voted against.\n     * @param propositionId id of proposition\n     * @return proposition current status\n     */\n    function getPropositionStatus(uint256 propositionId)\n        external\n        view\n        override\n        validPropositionId(propositionId)\n        returns (PropositionStatus)\n    {\n        if (propositionsList[propositionId].startBlock > block.number) {\n            // voting pending\n            return PropositionStatus.PENDING;\n        } else if (propositionsList[propositionId].endBlock >= block.number) {\n            // voting in progress\n            return PropositionStatus.ACTIVE;\n        } else {\n            // voting finished - calculate votes\n            uint256 totalMembers = token.totalSupply();\n            uint256 votersTreshold = SafeMath.div(totalMembers, 2);\n\n            // voters quorum\n            if (propositionsList[propositionId].totalVotes > votersTreshold) {\n                uint256 totalVotes = propositionsList[propositionId].totalVotes;\n                uint256 votesTreshold = SafeMath.div(totalVotes, 2);\n\n                // votes for accept quorum\n                if (\n                    propositionsList[propositionId].totalVotesAccept >\n                    votesTreshold\n                ) {\n                    return PropositionStatus.SUCCEEDED;\n                }\n            }\n        }\n        return PropositionStatus.FAILED;\n    }\n\n    /**\n     * @notice Vote on proposition by giving proposition id and your vote.\n     * @param propositionId id of proposition\n     * @param votingOption accept, deny or reserved\n     */\n    function vote(uint256 propositionId, VotingOptions votingOption)\n        external\n        override\n        validPropositionId(propositionId)\n        propositionIsActive(propositionId)\n        activeMember\n        haventVoted(propositionId)\n    {\n        Proposition storage p = propositionsList[propositionId];\n\n        if (votingOption == VotingOptions.ACCEPT) {\n            p.votersAccept[msg.sender] = true;\n            p.totalVotesAccept = SafeMath.add(p.totalVotesAccept, 1);\n        } else if (votingOption == VotingOptions.DENY) {\n            p.votersDeny[msg.sender] = true;\n            p.totalVotesDeny = SafeMath.add(p.totalVotesDeny, 1);\n        } else if (votingOption == VotingOptions.RESERVED) {\n            p.votersReserved[msg.sender] = true;\n            p.totalVotesReserved = SafeMath.add(p.totalVotesReserved, 1);\n        } else {\n            revert('Invalid voting option');\n        }\n\n        p.totalVotes = SafeMath.add(p.totalVotes, 1);\n    }\n\n    /**\n     * @dev Validate that proposition id is in range of propositions list.\n     * @param propositionId id of proposition\n     */\n    modifier validPropositionId(uint256 propositionId) {\n        require(\n            propositionId >= 0 && propositionId < totalPropositions,\n            'Invalid proposition Id'\n        );\n\n        _;\n    }\n\n    /**\n     * @dev Validate number of block on which proposition becomes active.\n     * @param startBlock block number\n     */\n    modifier validStartBlock(uint256 startBlock) {\n        require(startBlock >= block.number, 'Invalid start block number');\n\n        _;\n    }\n\n    /**\n     * @dev Validate number of block on which proposition will no longer be active.\n     * @param startBlock block number\n     * @param endBlock block number\n     */\n    modifier validEndBlock(uint256 startBlock, uint256 endBlock) {\n        require(\n            SafeMath.add(startBlock, getMinimumVotingBlockDifference()) <=\n                endBlock,\n            'Invalid end block number'\n        );\n\n        _;\n    }\n\n    /**\n     * @dev Verifiy that sender is an active dao member and holds the dao token.\n     */\n    modifier activeMember() {\n        require(\n            token.balanceOf(msg.sender) > 0,\n            'You are not an active member'\n        );\n\n        _;\n    }\n\n    /**\n     * @dev Verify that voter has not voted yet. Only one vote is possible.\n     * @param propositionId id of proposition\n     */\n    modifier haventVoted(uint256 propositionId) {\n        require(\n            !(propositionsList[propositionId].votersAccept[msg.sender]),\n            'You already voted'\n        );\n        require(\n            !(propositionsList[propositionId].votersDeny[msg.sender]),\n            'You already voted'\n        );\n        require(\n            !(propositionsList[propositionId].votersReserved[msg.sender]),\n            'You already voted'\n        );\n\n        _;\n    }\n\n    /**\n     * @dev Check if proposition is active for voting.\n     * Proposition is active for voting if current block number is\n     * between proposition's start block and end block.\n     * @param propositionId id of proposition\n     */\n    modifier propositionIsActive(uint256 propositionId) {\n        require(\n            propositionsList[propositionId].startBlock <= block.number &&\n                propositionsList[propositionId].endBlock >= block.number,\n            'Proposition is not active for voting'\n        );\n\n        _;\n    }\n}\n\n/**\n * @dev ERC777 interface with methods only used in voting contract.\n */\ninterface IDaoToken {\n    function balanceOf(address holder) external view returns (uint256);\n\n    function totalSupply() external view returns (uint256);\n}\n",
  "sourcePath": "/home/satan/DEV/npo-dao/ethereum/contracts/CommunityVoting.sol",
  "compiler": {
    "name": "solc",
    "version": "0.7.0+commit.9e61f92b.Emscripten.clang"
  },
  "schemaVersion": "3.2.5",
  "updatedAt": "2020-12-08T15:45:31.450Z",
  "networkType": "ethereum",
  "devdoc": {
    "kind": "dev",
    "methods": {
      "constructor": {
        "details": "Initialize contract on deployment."
      },
      "createProposition(string,string,uint256,uint256)": {
        "details": "Create new proposition struct and save it to list of propositions.",
        "params": {
          "description": "proposition description",
          "endBlock": "block on which proposition is no longer active",
          "startBlock": "block on which proposition is active for voting",
          "title": "proposition title"
        }
      },
      "getName()": {
        "returns": {
          "_0": "the contract name"
        }
      },
      "getNumberOfPropositions()": {
        "returns": {
          "_0": "number of propositions"
        }
      },
      "getPropositionInfo(uint256)": {
        "details": "These do not include votes related data.",
        "params": {
          "propositionId": "id of proposition"
        },
        "returns": {
          "description": "description",
          "endBlock": "endBlock",
          "id": "id",
          "proposedBy": "proposedBy",
          "startBlock": "startBlock",
          "title": "title"
        }
      },
      "getPropositionStatus(uint256)": {
        "details": "Voting status can be: - pending if proposition is not available for voting, - active if proposition is currently available for voting, - succeeded if voters voted for support, - failed if voters voted against.",
        "params": {
          "propositionId": "id of proposition"
        },
        "returns": {
          "_0": "proposition current status"
        }
      },
      "getPropositionVotes(uint256)": {
        "details": "Voting info includes: - total number of votes, - number of support votes, - number of against votes and - number of reserved votes.",
        "params": {
          "propositionId": "id of proposition"
        },
        "returns": {
          "totalVotes": "totalVotes",
          "totalVotesAccept": "totalVotesAccept",
          "totalVotesDeny": "totalVotesDeny",
          "totalVotesReserved": "totalVotesReserved"
        }
      },
      "getTokenAddress()": {
        "returns": {
          "_0": "the contract address"
        }
      },
      "vote(uint256,uint8)": {
        "params": {
          "propositionId": "id of proposition",
          "votingOption": "accept, deny or reserved"
        }
      }
    },
    "version": 1
  },
  "userdoc": {
    "kind": "user",
    "methods": {
      "createProposition(string,string,uint256,uint256)": {
        "notice": "Create new proposition for voting."
      },
      "getName()": {
        "notice": "Get the contract name."
      },
      "getNumberOfPropositions()": {
        "notice": "Get total number of all propositions in existance."
      },
      "getPropositionInfo(uint256)": {
        "notice": "Get basic info of proposition."
      },
      "getPropositionStatus(uint256)": {
        "notice": "Get voting status of proposition."
      },
      "getPropositionVotes(uint256)": {
        "notice": "Get voting info of proposition."
      },
      "getTokenAddress()": {
        "notice": "Get the address of token contract."
      },
      "vote(uint256,uint8)": {
        "notice": "Vote on proposition by giving proposition id and your vote."
      }
    },
    "version": 1
  }
}