{
  "contractName": "DaoToken",
  "abi": [
    {
      "inputs": [],
      "stateMutability": "nonpayable",
      "type": "constructor"
    },
    {
      "anonymous": false,
      "inputs": [
        {
          "indexed": true,
          "internalType": "address",
          "name": "operator",
          "type": "address"
        },
        {
          "indexed": true,
          "internalType": "address",
          "name": "holder",
          "type": "address"
        }
      ],
      "name": "AuthorizedOperator",
      "type": "event"
    },
    {
      "anonymous": false,
      "inputs": [
        {
          "indexed": true,
          "internalType": "address",
          "name": "operator",
          "type": "address"
        },
        {
          "indexed": true,
          "internalType": "address",
          "name": "from",
          "type": "address"
        },
        {
          "indexed": false,
          "internalType": "uint256",
          "name": "amount",
          "type": "uint256"
        },
        {
          "indexed": false,
          "internalType": "bytes",
          "name": "data",
          "type": "bytes"
        },
        {
          "indexed": false,
          "internalType": "bytes",
          "name": "operatorData",
          "type": "bytes"
        }
      ],
      "name": "Burned",
      "type": "event"
    },
    {
      "anonymous": false,
      "inputs": [
        {
          "indexed": true,
          "internalType": "address",
          "name": "operator",
          "type": "address"
        },
        {
          "indexed": true,
          "internalType": "address",
          "name": "to",
          "type": "address"
        },
        {
          "indexed": false,
          "internalType": "uint256",
          "name": "amount",
          "type": "uint256"
        },
        {
          "indexed": false,
          "internalType": "bytes",
          "name": "data",
          "type": "bytes"
        },
        {
          "indexed": false,
          "internalType": "bytes",
          "name": "operatorData",
          "type": "bytes"
        }
      ],
      "name": "Minted",
      "type": "event"
    },
    {
      "anonymous": false,
      "inputs": [
        {
          "indexed": true,
          "internalType": "address",
          "name": "operator",
          "type": "address"
        },
        {
          "indexed": true,
          "internalType": "address",
          "name": "holder",
          "type": "address"
        }
      ],
      "name": "RevokedOperator",
      "type": "event"
    },
    {
      "anonymous": false,
      "inputs": [
        {
          "indexed": true,
          "internalType": "address",
          "name": "operator",
          "type": "address"
        },
        {
          "indexed": true,
          "internalType": "address",
          "name": "from",
          "type": "address"
        },
        {
          "indexed": true,
          "internalType": "address",
          "name": "to",
          "type": "address"
        },
        {
          "indexed": false,
          "internalType": "uint256",
          "name": "amount",
          "type": "uint256"
        },
        {
          "indexed": false,
          "internalType": "bytes",
          "name": "data",
          "type": "bytes"
        },
        {
          "indexed": false,
          "internalType": "bytes",
          "name": "operatorData",
          "type": "bytes"
        }
      ],
      "name": "Sent",
      "type": "event"
    },
    {
      "inputs": [],
      "name": "chairman",
      "outputs": [
        {
          "internalType": "address",
          "name": "",
          "type": "address"
        }
      ],
      "stateMutability": "view",
      "type": "function",
      "constant": true
    },
    {
      "inputs": [],
      "name": "name",
      "outputs": [
        {
          "internalType": "string",
          "name": "",
          "type": "string"
        }
      ],
      "stateMutability": "view",
      "type": "function",
      "constant": true
    },
    {
      "inputs": [],
      "name": "symbol",
      "outputs": [
        {
          "internalType": "string",
          "name": "",
          "type": "string"
        }
      ],
      "stateMutability": "view",
      "type": "function",
      "constant": true
    },
    {
      "inputs": [],
      "name": "totalSupply",
      "outputs": [
        {
          "internalType": "uint256",
          "name": "",
          "type": "uint256"
        }
      ],
      "stateMutability": "view",
      "type": "function",
      "constant": true
    },
    {
      "inputs": [
        {
          "internalType": "address",
          "name": "holder",
          "type": "address"
        }
      ],
      "name": "balanceOf",
      "outputs": [
        {
          "internalType": "uint256",
          "name": "",
          "type": "uint256"
        }
      ],
      "stateMutability": "view",
      "type": "function",
      "constant": true
    },
    {
      "inputs": [],
      "name": "tokenHolders",
      "outputs": [
        {
          "internalType": "address[]",
          "name": "",
          "type": "address[]"
        }
      ],
      "stateMutability": "view",
      "type": "function",
      "constant": true
    },
    {
      "inputs": [],
      "name": "granularity",
      "outputs": [
        {
          "internalType": "uint256",
          "name": "",
          "type": "uint256"
        }
      ],
      "stateMutability": "view",
      "type": "function",
      "constant": true
    },
    {
      "inputs": [],
      "name": "defaultOperators",
      "outputs": [
        {
          "internalType": "address[]",
          "name": "",
          "type": "address[]"
        }
      ],
      "stateMutability": "view",
      "type": "function",
      "constant": true
    },
    {
      "inputs": [
        {
          "internalType": "address",
          "name": "operator",
          "type": "address"
        },
        {
          "internalType": "address",
          "name": "holder",
          "type": "address"
        }
      ],
      "name": "isOperatorFor",
      "outputs": [
        {
          "internalType": "bool",
          "name": "",
          "type": "bool"
        }
      ],
      "stateMutability": "view",
      "type": "function",
      "constant": true
    },
    {
      "inputs": [
        {
          "internalType": "address",
          "name": "operator",
          "type": "address"
        }
      ],
      "name": "authorizeOperator",
      "outputs": [],
      "stateMutability": "nonpayable",
      "type": "function"
    },
    {
      "inputs": [
        {
          "internalType": "address",
          "name": "operator",
          "type": "address"
        }
      ],
      "name": "revokeOperator",
      "outputs": [],
      "stateMutability": "nonpayable",
      "type": "function"
    },
    {
      "inputs": [
        {
          "internalType": "address",
          "name": "to",
          "type": "address"
        },
        {
          "internalType": "uint256",
          "name": "amount",
          "type": "uint256"
        },
        {
          "internalType": "bytes",
          "name": "data",
          "type": "bytes"
        }
      ],
      "name": "send",
      "outputs": [],
      "stateMutability": "nonpayable",
      "type": "function"
    },
    {
      "inputs": [
        {
          "internalType": "address",
          "name": "from",
          "type": "address"
        },
        {
          "internalType": "address",
          "name": "to",
          "type": "address"
        },
        {
          "internalType": "uint256",
          "name": "amount",
          "type": "uint256"
        },
        {
          "internalType": "bytes",
          "name": "data",
          "type": "bytes"
        },
        {
          "internalType": "bytes",
          "name": "operatorData",
          "type": "bytes"
        }
      ],
      "name": "operatorSend",
      "outputs": [],
      "stateMutability": "nonpayable",
      "type": "function"
    },
    {
      "inputs": [
        {
          "internalType": "uint256",
          "name": "amount",
          "type": "uint256"
        },
        {
          "internalType": "bytes",
          "name": "data",
          "type": "bytes"
        }
      ],
      "name": "burn",
      "outputs": [],
      "stateMutability": "nonpayable",
      "type": "function"
    },
    {
      "inputs": [
        {
          "internalType": "address",
          "name": "from",
          "type": "address"
        },
        {
          "internalType": "uint256",
          "name": "amount",
          "type": "uint256"
        },
        {
          "internalType": "bytes",
          "name": "data",
          "type": "bytes"
        },
        {
          "internalType": "bytes",
          "name": "operatorData",
          "type": "bytes"
        }
      ],
      "name": "operatorBurn",
      "outputs": [],
      "stateMutability": "nonpayable",
      "type": "function"
    },
    {
      "inputs": [],
      "name": "mint",
      "outputs": [],
      "stateMutability": "nonpayable",
      "type": "function"
    },
    {
      "inputs": [],
      "name": "isMintable",
      "outputs": [
        {
          "internalType": "bool",
          "name": "",
          "type": "bool"
        }
      ],
      "stateMutability": "view",
      "type": "function",
      "constant": true
    },
    {
      "inputs": [],
      "name": "enableMinting",
      "outputs": [],
      "stateMutability": "nonpayable",
      "type": "function"
    },
    {
      "inputs": [],
      "name": "disableMinting",
      "outputs": [],
      "stateMutability": "nonpayable",
      "type": "function"
    }
  ],
  "bytecode": "0x60806040523480156200001157600080fd5b50336000806101000a81548173ffffffffffffffffffffffffffffffffffffffff021916908373ffffffffffffffffffffffffffffffffffffffff1602179055506040518060400160405280601081526020017f454553544543204c43205a616772656200000000000000000000000000000000815250600190805190602001906200009f929190620001c7565b506040518060400160405280600381526020017f455a47000000000000000000000000000000000000000000000000000000000081525060029080519060200190620000ed929190620001c7565b5060016004819055506000600860006101000a81548160ff02191690831515021790555060016003819055506001600660003373ffffffffffffffffffffffffffffffffffffffff1673ffffffffffffffffffffffffffffffffffffffff168152602001908152602001600020819055506005339080600181540180825580915050600190039060005260206000200160009091909190916101000a81548173ffffffffffffffffffffffffffffffffffffffff021916908373ffffffffffffffffffffffffffffffffffffffff1602179055506200026d565b828054600181600116156101000203166002900490600052602060002090601f016020900481019282601f106200020a57805160ff19168380011785556200023b565b828001600101855582156200023b579182015b828111156200023a5782518255916020019190600101906200021d565b5b5090506200024a91906200024e565b5090565b5b80821115620002695760008160009055506001016200024f565b5090565b6110dc806200027d6000396000f3fe608060405234801561001057600080fd5b50600436106101215760003560e01c806387f7b975116100ad578063d95b637111610071578063d95b6371146105e5578063e797ec1b1461065f578063fad8b32a14610669578063fc673c4f146106ad578063fe9d9303146107a557610121565b806387f7b975146103e8578063953669be1461041c578063959b8c3f1461047b57806395d89b41146104bf5780639bd9bbc61461054257610121565b806346b45af7116100f457806346b45af714610230578063556f0dc71461025057806362ad1b831461026e57806370a08231146103865780637e5cd5c1146103de57610121565b806306e485381461012657806306fdde03146101855780631249c58b1461020857806318160ddd14610212575b600080fd5b61012e610828565b6040518080602001828103825283818151815260200191508051906020019060200280838360005b83811015610171578082015181840152602081019050610156565b505050509050019250505060405180910390f35b61018d6108b6565b6040518080602001828103825283818151815260200191508051906020019080838360005b838110156101cd5780820151818401526020810190506101b2565b50505050905090810190601f1680156101fa5780820380516001836020036101000a031916815260200191505b509250505060405180910390f35b610210610958565b005b61021a610b35565b6040518082815260200191505060405180910390f35b610238610b3f565b60405180821515815260200191505060405180910390f35b610258610b56565b6040518082815260200191505060405180910390f35b610384600480360360a081101561028457600080fd5b81019080803573ffffffffffffffffffffffffffffffffffffffff169060200190929190803573ffffffffffffffffffffffffffffffffffffffff16906020019092919080359060200190929190803590602001906401000000008111156102eb57600080fd5b8201836020820111156102fd57600080fd5b8035906020019184600183028401116401000000008311171561031f57600080fd5b90919293919293908035906020019064010000000081111561034057600080fd5b82018360208201111561035257600080fd5b8035906020019184600183028401116401000000008311171561037457600080fd5b9091929391929390505050610b60565b005b6103c86004803603602081101561039c57600080fd5b81019080803573ffffffffffffffffffffffffffffffffffffffff169060200190929190505050610b69565b6040518082815260200191505060405180910390f35b6103e6610bb2565b005b6103f0610cfb565b604051808273ffffffffffffffffffffffffffffffffffffffff16815260200191505060405180910390f35b610424610d24565b6040518080602001828103825283818151815260200191508051906020019060200280838360005b8381101561046757808201518184015260208101905061044c565b505050509050019250505060405180910390f35b6104bd6004803603602081101561049157600080fd5b81019080803573ffffffffffffffffffffffffffffffffffffffff169060200190929190505050610db2565b005b6104c7610db5565b6040518080602001828103825283818151815260200191508051906020019080838360005b838110156105075780820151818401526020810190506104ec565b50505050905090810190601f1680156105345780820380516001836020036101000a031916815260200191505b509250505060405180910390f35b6105e36004803603606081101561055857600080fd5b81019080803573ffffffffffffffffffffffffffffffffffffffff169060200190929190803590602001909291908035906020019064010000000081111561059f57600080fd5b8201836020820111156105b157600080fd5b803590602001918460018302840111640100000000831117156105d357600080fd5b9091929391929390505050610e57565b005b610647600480360360408110156105fb57600080fd5b81019080803573ffffffffffffffffffffffffffffffffffffffff169060200190929190803573ffffffffffffffffffffffffffffffffffffffff169060200190929190505050610e5d565b60405180821515815260200191505060405180910390f35b610667610e65565b005b6106ab6004803603602081101561067f57600080fd5b81019080803573ffffffffffffffffffffffffffffffffffffffff169060200190929190505050610fca565b005b6107a3600480360360808110156106c357600080fd5b81019080803573ffffffffffffffffffffffffffffffffffffffff169060200190929190803590602001909291908035906020019064010000000081111561070a57600080fd5b82018360208201111561071c57600080fd5b8035906020019184600183028401116401000000008311171561073e57600080fd5b90919293919293908035906020019064010000000081111561075f57600080fd5b82018360208201111561077157600080fd5b8035906020019184600183028401116401000000008311171561079357600080fd5b9091929391929390505050610fcd565b005b610826600480360360408110156107bb57600080fd5b8101908080359060200190929190803590602001906401000000008111156107e257600080fd5b8201836020820111156107f457600080fd5b8035906020019184600183028401116401000000008311171561081657600080fd5b9091929391929390505050610fd5565b005b606060078054806020026020016040519081016040528092919081815260200182805480156108ac57602002820191906000526020600020905b8160009054906101000a900473ffffffffffffffffffffffffffffffffffffffff1673ffffffffffffffffffffffffffffffffffffffff1681526020019060010190808311610862575b5050505050905090565b606060018054600181600116156101000203166002900480601f01602080910402602001604051908101604052809291908181526020018280546001816001161561010002031660029004801561094e5780601f106109235761010080835404028352916020019161094e565b820191906000526020600020905b81548152906001019060200180831161093157829003601f168201915b5050505050905090565b600860009054906101000a900460ff166109bd576040517f08c379a00000000000000000000000000000000000000000000000000000000081526004018080602001828103825260238152602001806110636023913960400191505060405180910390fd5b6000600660003373ffffffffffffffffffffffffffffffffffffffff1673ffffffffffffffffffffffffffffffffffffffff168152602001908152602001600020541415610ac557610a126003546001610fda565b6003819055506001600660003373ffffffffffffffffffffffffffffffffffffffff1673ffffffffffffffffffffffffffffffffffffffff168152602001908152602001600020819055506005339080600181540180825580915050600190039060005260206000200160009091909190916101000a81548173ffffffffffffffffffffffffffffffffffffffff021916908373ffffffffffffffffffffffffffffffffffffffff160217905550610b33565b6040517f08c379a00000000000000000000000000000000000000000000000000000000081526004018080602001828103825260188152602001807f596f7520616c72656164792068617665206120746f6b656e000000000000000081525060200191505060405180910390fd5b565b6000600354905090565b6000600860009054906101000a900460ff16905090565b6000600454905090565b50505050505050565b6000600660008373ffffffffffffffffffffffffffffffffffffffff1673ffffffffffffffffffffffffffffffffffffffff168152602001908152602001600020549050919050565b60008054906101000a900473ffffffffffffffffffffffffffffffffffffffff1673ffffffffffffffffffffffffffffffffffffffff163373ffffffffffffffffffffffffffffffffffffffff1614610c73576040517f08c379a00000000000000000000000000000000000000000000000000000000081526004018080602001828103825260168152602001807f596f7520617265206e6f7420612063686169726d616e0000000000000000000081525060200191505060405180910390fd5b600860009054906101000a900460ff1615610ca8576000600860006101000a81548160ff021916908315150217905550610cf9565b6040517f08c379a00000000000000000000000000000000000000000000000000000000081526004018080602001828103825260218152602001806110866021913960400191505060405180910390fd5b565b60008060009054906101000a900473ffffffffffffffffffffffffffffffffffffffff16905090565b60606005805480602002602001604051908101604052809291908181526020018280548015610da857602002820191906000526020600020905b8160009054906101000a900473ffffffffffffffffffffffffffffffffffffffff1673ffffffffffffffffffffffffffffffffffffffff1681526020019060010190808311610d5e575b5050505050905090565b50565b606060028054600181600116156101000203166002900480601f016020809104026020016040519081016040528092919081815260200182805460018160011615610100020316600290048015610e4d5780601f10610e2257610100808354040283529160200191610e4d565b820191906000526020600020905b815481529060010190602001808311610e3057829003601f168201915b5050505050905090565b50505050565b600092915050565b60008054906101000a900473ffffffffffffffffffffffffffffffffffffffff1673ffffffffffffffffffffffffffffffffffffffff163373ffffffffffffffffffffffffffffffffffffffff1614610f26576040517f08c379a00000000000000000000000000000000000000000000000000000000081526004018080602001828103825260168152602001807f596f7520617265206e6f7420612063686169726d616e0000000000000000000081525060200191505060405180910390fd5b600860009054906101000a900460ff16610f5a576001600860006101000a81548160ff021916908315150217905550610fc8565b6040517f08c379a00000000000000000000000000000000000000000000000000000000081526004018080602001828103825260208152602001807f546f6b656e206d696e74696e6720697320616c726561647920656e61626c656481525060200191505060405180910390fd5b565b50565b505050505050565b505050565b600080828401905083811015611058576040517f08c379a00000000000000000000000000000000000000000000000000000000081526004018080602001828103825260088152602001807f6f766572666c6f7700000000000000000000000000000000000000000000000081525060200191505060405180910390fd5b809150509291505056fe546f6b656e206973206e6f74206d696e7461626c6520617420746865206d6f6d656e74546f6b656e206d696e74696e6720697320616c72656164792064697361626c6564a264697066735822122007588a1eb8e672858c9ebe3220bd01c6b0a3e8a450144c289f28fa52f86cc47964736f6c63430007000033",
  "immutableReferences": {},
  "source": "// SPDX-License-Identifier: MIT\npragma solidity ^0.7.0;\n\nimport './IERC777Token.sol';\nimport './IMintableToken.sol';\nimport './Ownable.sol';\nimport './SafeMath.sol';\n\n/**\n * @dev Implementation of the IERC777 Token Interface.\n */\ncontract DaoToken is IERC777Token, IMintableToken, Ownable {\n    // Token name\n    string internal tokenName;\n\n    // Token symbol\n    string internal tokenSymbol;\n\n    // Token total supply\n    uint256 internal tokenTotalSupply;\n\n    // Token granularity\n    uint256 internal tokenGranularity;\n\n    // Token holders\n    address[] internal tokenHoldersList;\n\n    // Balances of each token holder\n    mapping(address => uint256) internal tokenHoldersBalances;\n\n    // Default token operators\n    address[] internal defaultTokenOperators;\n\n    // Flag token as mintable or not at the moment\n    bool internal tokenMintable;\n\n    /**\n     * @dev Initialize token on contract deployment.\n     */\n    constructor() Ownable() {\n        // set basic token attributes\n        tokenName = 'EESTEC LC Zagreb';\n        tokenSymbol = 'EZG';\n        tokenGranularity = 1;\n\n        // set token holder and initial supply\n        tokenMintable = false;\n        tokenTotalSupply = 1;\n        tokenHoldersBalances[msg.sender] = 1;\n        tokenHoldersList.push(msg.sender);\n    }\n\n    /**\n     * @notice Gets the token name.\n     * @return the token name\n     */\n    function name() external view override returns (string memory) {\n        return tokenName;\n    }\n\n    /**\n     * @notice Gets the token symbol.\n     * @return the token symbol\n     */\n    function symbol() external view override returns (string memory) {\n        return tokenSymbol;\n    }\n\n    /**\n     * @notice Gets the total number of minted tokens.\n     * @return the total supply of tokens\n     */\n    function totalSupply() external view override returns (uint256) {\n        return tokenTotalSupply;\n    }\n\n    /**\n     * @notice Gets the balance of the account with address holder.\n     * @param holder the address of token holder for which the balance is returned\n     * @return the balance of token holder\n     */\n    function balanceOf(address holder)\n        external\n        view\n        override\n        returns (uint256)\n    {\n        return tokenHoldersBalances[holder];\n    }\n\n    /**\n     * @notice Return all token holders who hold token.\n     * @return addresses of holders\n     */\n    function tokenHolders() external view returns (address[] memory) {\n        return tokenHoldersList;\n    }\n\n    /**\n     * @notice Gets the smallest part of the token that is not divisible.\n     * @return the token granularity\n     */\n    function granularity() external view override returns (uint256) {\n        return tokenGranularity;\n    }\n\n    /**\n     * @notice Gets the list of addresses which are allowed to operate with tokens on behalf of some holder.\n     * @return the token operators\n     */\n    function defaultOperators()\n        external\n        view\n        override\n        returns (address[] memory)\n    {\n        return defaultTokenOperators;\n    }\n\n    /**\n     * @notice Check if operator of holder.\n     * @dev Check whether the operator is allowed to manage tokens held by the holder address.\n     * @param operator the address of the operator\n     * @param holder the address of the token holder\n     * @return true if the operator is allowed to manage tokens of holder\n     */\n    function isOperatorFor(address operator, address holder)\n        external\n        view\n        override\n        returns (bool)\n    {\n        return false;\n    }\n\n    /**\n     * @dev Authorize an operator to manage tokens of the sender (caller's address).\n     * @param operator the operator's address that will be authorized\n     */\n    function authorizeOperator(address operator) external override {}\n\n    /**\n     * @dev Revoke an operator's rights to manage tokens of the sender (caller's address).\n     * @param operator the operator's address that will be revoked\n     */\n    function revokeOperator(address operator) external override {}\n\n    /**\n     * @dev Move amount of tokens from the sender's (caller's) address to recipient's address.\n     * @param to the address of recipient\n     * @param amount number of tokens to move\n     * @param data data generated by the holder\n     */\n    function send(\n        address to,\n        uint256 amount,\n        bytes calldata data\n    ) external override {}\n\n    /**\n     * @dev Move amount of tokens on behalf of the address from to address to.\n     * @param from the address holding tokens\n     * @param to the address of the recipient\n     * @param amount number of tokens to send\n     * @param data data generated by the holder\n     * @param operatorData data generated by the operator\n     */\n    function operatorSend(\n        address from,\n        address to,\n        uint256 amount,\n        bytes calldata data,\n        bytes calldata operatorData\n    ) external override {}\n\n    /**\n     * @dev Destroys amount of tokens from the senders account (caller's address), reducing the total supply.\n     * @param amount number of tokens to burn\n     * @param data data generated by the holder\n     */\n    function burn(uint256 amount, bytes calldata data) external override {}\n\n    /**\n     * @dev Burn amount of tokens on behalf of the address from.\n     * @param from the address holding tokens\n     * @param amount number of tokens to burn\n     * @param data data generated by the holder\n     * @param operatorData data generated by the operator\n     */\n    function operatorBurn(\n        address from,\n        uint256 amount,\n        bytes calldata data,\n        bytes calldata operatorData\n    ) external override {}\n\n    /**\n     * @dev Verify that token is mintable before minting.\n     */\n    modifier mintEnabled {\n        require(tokenMintable, 'Token is not mintable at the moment');\n        _;\n    }\n\n    /**\n     * @notice Mint yourself a token.\n     * @dev Mint exactly one token for caller's address if one hasn't minted already.\n     */\n    function mint() external override mintEnabled {\n        if (tokenHoldersBalances[msg.sender] == 0) {\n            tokenTotalSupply = SafeMath.add(tokenTotalSupply, 1);\n            tokenHoldersBalances[msg.sender] = 1;\n            tokenHoldersList.push(msg.sender);\n        } else {\n            revert('You already have a token');\n        }\n    }\n\n    /**\n     * @notice Check whether the token is mintable or not.\n     * @return true if token is mintable\n     */\n    function isMintable() external view override returns (bool) {\n        return tokenMintable;\n    }\n\n    /**\n     * @notice Enable token minting for public.\n     */\n    function enableMinting() external override onlyOwner {\n        if (!tokenMintable) {\n            tokenMintable = true;\n        } else {\n            revert('Token minting is already enabled');\n        }\n    }\n\n    /**\n     * @notice Disable token minting for public.\n     */\n    function disableMinting() external override onlyOwner {\n        if (tokenMintable) {\n            tokenMintable = false;\n        } else {\n            revert('Token minting is already disabled');\n        }\n    }\n}\n",
  "sourcePath": "/home/satan/DEV/npo-dao/ethereum/contracts/DaoToken.sol",
  "compiler": {
    "name": "solc",
    "version": "0.7.0+commit.9e61f92b.Emscripten.clang"
  },
  "schemaVersion": "3.2.5",
  "updatedAt": "2020-12-08T15:45:31.440Z",
  "networkType": "ethereum",
  "devdoc": {
    "details": "Implementation of the IERC777 Token Interface.",
    "kind": "dev",
    "methods": {
      "authorizeOperator(address)": {
        "details": "Authorize an operator to manage tokens of the sender (caller's address).",
        "params": {
          "operator": "the operator's address that will be authorized"
        }
      },
      "balanceOf(address)": {
        "params": {
          "holder": "the address of token holder for which the balance is returned"
        },
        "returns": {
          "_0": "the balance of token holder"
        }
      },
      "burn(uint256,bytes)": {
        "details": "Destroys amount of tokens from the senders account (caller's address), reducing the total supply.",
        "params": {
          "amount": "number of tokens to burn",
          "data": "data generated by the holder"
        }
      },
      "chairman()": {
        "details": "Gets the token chairman.",
        "returns": {
          "_0": "the token chairman"
        }
      },
      "constructor": {
        "details": "Initialize token on contract deployment."
      },
      "defaultOperators()": {
        "returns": {
          "_0": "the token operators"
        }
      },
      "granularity()": {
        "returns": {
          "_0": "the token granularity"
        }
      },
      "isMintable()": {
        "returns": {
          "_0": "true if token is mintable"
        }
      },
      "isOperatorFor(address,address)": {
        "details": "Check whether the operator is allowed to manage tokens held by the holder address.",
        "params": {
          "holder": "the address of the token holder",
          "operator": "the address of the operator"
        },
        "returns": {
          "_0": "true if the operator is allowed to manage tokens of holder"
        }
      },
      "mint()": {
        "details": "Mint exactly one token for caller's address if one hasn't minted already."
      },
      "name()": {
        "returns": {
          "_0": "the token name"
        }
      },
      "operatorBurn(address,uint256,bytes,bytes)": {
        "details": "Burn amount of tokens on behalf of the address from.",
        "params": {
          "amount": "number of tokens to burn",
          "data": "data generated by the holder",
          "from": "the address holding tokens",
          "operatorData": "data generated by the operator"
        }
      },
      "operatorSend(address,address,uint256,bytes,bytes)": {
        "details": "Move amount of tokens on behalf of the address from to address to.",
        "params": {
          "amount": "number of tokens to send",
          "data": "data generated by the holder",
          "from": "the address holding tokens",
          "operatorData": "data generated by the operator",
          "to": "the address of the recipient"
        }
      },
      "revokeOperator(address)": {
        "details": "Revoke an operator's rights to manage tokens of the sender (caller's address).",
        "params": {
          "operator": "the operator's address that will be revoked"
        }
      },
      "send(address,uint256,bytes)": {
        "details": "Move amount of tokens from the sender's (caller's) address to recipient's address.",
        "params": {
          "amount": "number of tokens to move",
          "data": "data generated by the holder",
          "to": "the address of recipient"
        }
      },
      "symbol()": {
        "returns": {
          "_0": "the token symbol"
        }
      },
      "tokenHolders()": {
        "returns": {
          "_0": "addresses of holders"
        }
      },
      "totalSupply()": {
        "returns": {
          "_0": "the total supply of tokens"
        }
      }
    },
    "version": 1
  },
  "userdoc": {
    "kind": "user",
    "methods": {
      "balanceOf(address)": {
        "notice": "Gets the balance of the account with address holder."
      },
      "defaultOperators()": {
        "notice": "Gets the list of addresses which are allowed to operate with tokens on behalf of some holder."
      },
      "disableMinting()": {
        "notice": "Disable token minting for public."
      },
      "enableMinting()": {
        "notice": "Enable token minting for public."
      },
      "granularity()": {
        "notice": "Gets the smallest part of the token that is not divisible."
      },
      "isMintable()": {
        "notice": "Check whether the token is mintable or not."
      },
      "isOperatorFor(address,address)": {
        "notice": "Check if operator of holder."
      },
      "mint()": {
        "notice": "Mint yourself a token."
      },
      "name()": {
        "notice": "Gets the token name."
      },
      "symbol()": {
        "notice": "Gets the token symbol."
      },
      "tokenHolders()": {
        "notice": "Return all token holders who hold token."
      },
      "totalSupply()": {
        "notice": "Gets the total number of minted tokens."
      }
    },
    "version": 1
  }
}